{
  "_format": "hh-sol-artifact-1",
  "contractName": "CustomContract",
  "sourceName": "contracts/CustomContract.sol",
  "abi": [
    {
      "inputs": [
        {
          "internalType": "string",
          "name": "_name",
          "type": "string"
        },
        {
          "internalType": "address",
          "name": "_owner",
          "type": "address"
        },
        {
          "internalType": "bool",
          "name": "_verification",
          "type": "bool"
        }
      ],
      "stateMutability": "nonpayable",
      "type": "constructor"
    },
    {
      "inputs": [],
      "name": "CustomContract__AlreadyVoted",
      "type": "error"
    },
    {
      "inputs": [],
      "name": "CustomContract__NotMember",
      "type": "error"
    },
    {
      "inputs": [],
      "name": "CustomContract__NotOwner",
      "type": "error"
    },
    {
      "inputs": [],
      "name": "CustomContract__PollDoesntExist",
      "type": "error"
    },
    {
      "inputs": [],
      "name": "CustomContract__PollIsFinished",
      "type": "error"
    },
    {
      "inputs": [],
      "name": "CustomContract__TransactionFailed",
      "type": "error"
    },
    {
      "anonymous": false,
      "inputs": [
        {
          "indexed": true,
          "internalType": "address",
          "name": "adr",
          "type": "address"
        }
      ],
      "name": "Join",
      "type": "event"
    },
    {
      "anonymous": false,
      "inputs": [
        {
          "indexed": true,
          "internalType": "address",
          "name": "adr",
          "type": "address"
        },
        {
          "indexed": false,
          "internalType": "string",
          "name": "message",
          "type": "string"
        }
      ],
      "name": "JoinRequest",
      "type": "event"
    },
    {
      "inputs": [
        {
          "internalType": "string",
          "name": "_name",
          "type": "string"
        },
        {
          "internalType": "string[]",
          "name": "_options",
          "type": "string[]"
        },
        {
          "internalType": "uint256",
          "name": "_endTimestamp",
          "type": "uint256"
        }
      ],
      "name": "createPoll",
      "outputs": [],
      "stateMutability": "nonpayable",
      "type": "function"
    },
    {
      "inputs": [
        {
          "internalType": "uint256",
          "name": "pollId",
          "type": "uint256"
        }
      ],
      "name": "getPollOptions",
      "outputs": [
        {
          "internalType": "string[]",
          "name": "",
          "type": "string[]"
        }
      ],
      "stateMutability": "view",
      "type": "function"
    },
    {
      "inputs": [
        {
          "internalType": "uint256",
          "name": "pollId",
          "type": "uint256"
        }
      ],
      "name": "getPollVotes",
      "outputs": [
        {
          "internalType": "uint16[]",
          "name": "",
          "type": "uint16[]"
        }
      ],
      "stateMutability": "view",
      "type": "function"
    },
    {
      "inputs": [
        {
          "internalType": "string",
          "name": "_message",
          "type": "string"
        }
      ],
      "name": "join",
      "outputs": [],
      "stateMutability": "nonpayable",
      "type": "function"
    },
    {
      "inputs": [
        {
          "internalType": "address",
          "name": "",
          "type": "address"
        }
      ],
      "name": "members",
      "outputs": [
        {
          "internalType": "bool",
          "name": "",
          "type": "bool"
        }
      ],
      "stateMutability": "view",
      "type": "function"
    },
    {
      "inputs": [],
      "name": "name",
      "outputs": [
        {
          "internalType": "string",
          "name": "",
          "type": "string"
        }
      ],
      "stateMutability": "view",
      "type": "function"
    },
    {
      "inputs": [],
      "name": "numOfPols",
      "outputs": [
        {
          "internalType": "uint8",
          "name": "",
          "type": "uint8"
        }
      ],
      "stateMutability": "view",
      "type": "function"
    },
    {
      "inputs": [],
      "name": "owner",
      "outputs": [
        {
          "internalType": "address payable",
          "name": "",
          "type": "address"
        }
      ],
      "stateMutability": "view",
      "type": "function"
    },
    {
      "inputs": [
        {
          "internalType": "uint256",
          "name": "",
          "type": "uint256"
        }
      ],
      "name": "polls",
      "outputs": [
        {
          "internalType": "string",
          "name": "name",
          "type": "string"
        },
        {
          "internalType": "uint8",
          "name": "n",
          "type": "uint8"
        },
        {
          "internalType": "uint256",
          "name": "expirationTime",
          "type": "uint256"
        }
      ],
      "stateMutability": "view",
      "type": "function"
    },
    {
      "inputs": [],
      "name": "verification",
      "outputs": [
        {
          "internalType": "bool",
          "name": "",
          "type": "bool"
        }
      ],
      "stateMutability": "view",
      "type": "function"
    },
    {
      "inputs": [
        {
          "internalType": "address",
          "name": "",
          "type": "address"
        }
      ],
      "name": "verificationWaitlist",
      "outputs": [
        {
          "internalType": "bool",
          "name": "",
          "type": "bool"
        }
      ],
      "stateMutability": "view",
      "type": "function"
    },
    {
      "inputs": [
        {
          "internalType": "address",
          "name": "_user",
          "type": "address"
        }
      ],
      "name": "verify",
      "outputs": [],
      "stateMutability": "nonpayable",
      "type": "function"
    },
    {
      "inputs": [
        {
          "internalType": "uint256",
          "name": "pollId",
          "type": "uint256"
        },
        {
          "internalType": "uint8",
          "name": "option",
          "type": "uint8"
        }
      ],
      "name": "voteInPoll",
      "outputs": [],
      "stateMutability": "nonpayable",
      "type": "function"
    },
    {
      "inputs": [
        {
          "internalType": "uint256",
          "name": "_amount",
          "type": "uint256"
        }
      ],
      "name": "withdrawFunds",
      "outputs": [],
      "stateMutability": "nonpayable",
      "type": "function"
    },
    {
      "stateMutability": "payable",
      "type": "receive"
    }
  ],
  "bytecode": "0x60806040526000600460006101000a81548160ff021916908360ff1602179055503480156200002d57600080fd5b506040516200269b3803806200269b8339818101604052810190620000539190620002fd565b816001806101000a81548173ffffffffffffffffffffffffffffffffffffffff021916908373ffffffffffffffffffffffffffffffffffffffff1602179055508260009081620000a49190620005c3565b5080600160006101000a81548160ff021916908315150217905550505050620006aa565b6000604051905090565b600080fd5b600080fd5b600080fd5b600080fd5b6000601f19601f8301169050919050565b7f4e487b7100000000000000000000000000000000000000000000000000000000600052604160045260246000fd5b6200013182620000e6565b810181811067ffffffffffffffff82111715620001535762000152620000f7565b5b80604052505050565b600062000168620000c8565b905062000176828262000126565b919050565b600067ffffffffffffffff821115620001995762000198620000f7565b5b620001a482620000e6565b9050602081019050919050565b60005b83811015620001d1578082015181840152602081019050620001b4565b60008484015250505050565b6000620001f4620001ee846200017b565b6200015c565b905082815260208101848484011115620002135762000212620000e1565b5b62000220848285620001b1565b509392505050565b600082601f83011262000240576200023f620000dc565b5b815162000252848260208601620001dd565b91505092915050565b600073ffffffffffffffffffffffffffffffffffffffff82169050919050565b600062000288826200025b565b9050919050565b6200029a816200027b565b8114620002a657600080fd5b50565b600081519050620002ba816200028f565b92915050565b60008115159050919050565b620002d781620002c0565b8114620002e357600080fd5b50565b600081519050620002f781620002cc565b92915050565b600080600060608486031215620003195762000318620000d2565b5b600084015167ffffffffffffffff8111156200033a5762000339620000d7565b5b620003488682870162000228565b93505060206200035b86828701620002a9565b92505060406200036e86828701620002e6565b9150509250925092565b600081519050919050565b7f4e487b7100000000000000000000000000000000000000000000000000000000600052602260045260246000fd5b60006002820490506001821680620003cb57607f821691505b602082108103620003e157620003e062000383565b5b50919050565b60008190508160005260206000209050919050565b60006020601f8301049050919050565b600082821b905092915050565b6000600883026200044b7fffffffffffffffffffffffffffffffffffffffffffffffffffffffffffffffff826200040c565b6200045786836200040c565b95508019841693508086168417925050509392505050565b6000819050919050565b6000819050919050565b6000620004a46200049e62000498846200046f565b62000479565b6200046f565b9050919050565b6000819050919050565b620004c08362000483565b620004d8620004cf82620004ab565b84845462000419565b825550505050565b600090565b620004ef620004e0565b620004fc818484620004b5565b505050565b5b81811015620005245762000518600082620004e5565b60018101905062000502565b5050565b601f82111562000573576200053d81620003e7565b6200054884620003fc565b8101602085101562000558578190505b620005706200056785620003fc565b83018262000501565b50505b505050565b600082821c905092915050565b6000620005986000198460080262000578565b1980831691505092915050565b6000620005b3838362000585565b9150826002028217905092915050565b620005ce8262000378565b67ffffffffffffffff811115620005ea57620005e9620000f7565b5b620005f68254620003b2565b6200060382828562000528565b600060209050601f8311600181146200063b576000841562000626578287015190505b620006328582620005a5565b865550620006a2565b601f1984166200064b86620003e7565b60005b8281101562000675578489015182556001820191506020850194506020810190506200064e565b8683101562000695578489015162000691601f89168262000585565b8355505b6001600288020188555050505b505050505050565b611fe180620006ba6000396000f3fe6080604052600436106100e15760003560e01c80636a786b071161007f578063bbff716611610059578063bbff7166146102cd578063f75627651461030a578063f81bfd4b14610347578063f8c860f414610370576100e8565b80636a786b071461023a5780638da5cb5b14610263578063ac2f00741461028e576100e8565b8063155dd5ee116100bb578063155dd5ee14610180578063432a8dfe146101a95780634ffe2a8b146101e657806363a9c3d714610211576100e8565b806306fdde03146100ed57806308ae4b0c1461011857806311b4586514610155576100e8565b366100e857005b600080fd5b3480156100f957600080fd5b50610102610399565b60405161010f9190611410565b60405180910390f35b34801561012457600080fd5b5061013f600480360381019061013a91906114a4565b610427565b60405161014c91906114ec565b60405180910390f35b34801561016157600080fd5b5061016a610447565b6040516101779190611523565b60405180910390f35b34801561018c57600080fd5b506101a760048036038101906101a29190611574565b61045a565b005b3480156101b557600080fd5b506101d060048036038101906101cb91906114a4565b61059f565b6040516101dd91906114ec565b60405180910390f35b3480156101f257600080fd5b506101fb6105bf565b60405161020891906114ec565b60405180910390f35b34801561021d57600080fd5b50610238600480360381019061023391906114a4565b6105d2565b005b34801561024657600080fd5b50610261600480360381019061025c91906116d6565b6107b1565b005b34801561026f57600080fd5b50610278610a06565b6040516102859190611740565b60405180910390f35b34801561029a57600080fd5b506102b560048036038101906102b09190611574565b610a2a565b6040516102c49392919061176a565b60405180910390f35b3480156102d957600080fd5b506102f460048036038101906102ef9190611574565b610af9565b6040516103019190611874565b60405180910390f35b34801561031657600080fd5b50610331600480360381019061032c9190611574565b610c23565b60405161033e91906119a2565b60405180910390f35b34801561035357600080fd5b5061036e600480360381019061036991906119f0565b610d21565b005b34801561037c57600080fd5b5061039760048036038101906103929190611b16565b610fb0565b005b600080546103a690611bd0565b80601f01602080910402602001604051908101604052809291908181526020018280546103d290611bd0565b801561041f5780601f106103f45761010080835404028352916020019161041f565b820191906000526020600020905b81548152906001019060200180831161040257829003601f168201915b505050505081565b60026020528060005260406000206000915054906101000a900460ff1681565b600460009054906101000a900460ff1681565b60018054906101000a900473ffffffffffffffffffffffffffffffffffffffff1673ffffffffffffffffffffffffffffffffffffffff163373ffffffffffffffffffffffffffffffffffffffff16146104df576040517f97c6e64400000000000000000000000000000000000000000000000000000000815260040160405180910390fd5b6000819050814710156104f0574790505b60003373ffffffffffffffffffffffffffffffffffffffff168260405161051690611c32565b60006040518083038185875af1925050503d8060008114610553576040519150601f19603f3d011682016040523d82523d6000602084013e610558565b606091505b50509050600015158115150361059a576040517ffe00d03800000000000000000000000000000000000000000000000000000000815260040160405180910390fd5b505050565b60036020528060005260406000206000915054906101000a900460ff1681565b600160009054906101000a900460ff1681565b60018054906101000a900473ffffffffffffffffffffffffffffffffffffffff1673ffffffffffffffffffffffffffffffffffffffff163373ffffffffffffffffffffffffffffffffffffffff1614610657576040517f97c6e64400000000000000000000000000000000000000000000000000000000815260040160405180910390fd5b600160009054906101000a900460ff16156107ae57600360008273ffffffffffffffffffffffffffffffffffffffff1673ffffffffffffffffffffffffffffffffffffffff16815260200190815260200160002060009054906101000a900460ff16156107ad57600360008273ffffffffffffffffffffffffffffffffffffffff1673ffffffffffffffffffffffffffffffffffffffff16815260200190815260200160002060006101000a81549060ff02191690556001600260008373ffffffffffffffffffffffffffffffffffffffff1673ffffffffffffffffffffffffffffffffffffffff16815260200190815260200160002060006101000a81548160ff0219169083151502179055508073ffffffffffffffffffffffffffffffffffffffff167f0764c80c4165f118547b301a0b4b91eac21bd2f2d9b61d0ac723ff0aab27bb7960405160405180910390a26107ae565b5b50565b600160009054906101000a900460ff166108b657600260003373ffffffffffffffffffffffffffffffffffffffff1673ffffffffffffffffffffffffffffffffffffffff16815260200190815260200160002060009054906101000a900460ff16610a03576001600260003373ffffffffffffffffffffffffffffffffffffffff1673ffffffffffffffffffffffffffffffffffffffff16815260200190815260200160002060006101000a81548160ff0219169083151502179055503373ffffffffffffffffffffffffffffffffffffffff167f0764c80c4165f118547b301a0b4b91eac21bd2f2d9b61d0ac723ff0aab27bb7960405160405180910390a2610a02565b600360003373ffffffffffffffffffffffffffffffffffffffff1673ffffffffffffffffffffffffffffffffffffffff16815260200190815260200160002060009054906101000a900460ff16806109575750600260003373ffffffffffffffffffffffffffffffffffffffff1673ffffffffffffffffffffffffffffffffffffffff16815260200190815260200160002060009054906101000a900460ff165b610a03576001600360003373ffffffffffffffffffffffffffffffffffffffff1673ffffffffffffffffffffffffffffffffffffffff16815260200190815260200160002060006101000a81548160ff0219169083151502179055503373ffffffffffffffffffffffffffffffffffffffff167feb3e688e6acbed85a6b3be493ee4a5f26c1cfa83ccbdc83aaf9f317f8e81e9d6826040516109f99190611410565b60405180910390a25b5b50565b60018054906101000a900473ffffffffffffffffffffffffffffffffffffffff1681565b60058181548110610a3a57600080fd5b9060005260206000209060060201600091509050806000018054610a5d90611bd0565b80601f0160208091040260200160405190810160405280929190818152602001828054610a8990611bd0565b8015610ad65780601f10610aab57610100808354040283529160200191610ad6565b820191906000526020600020905b815481529060010190602001808311610ab957829003601f168201915b5050505050908060010160009054906101000a900460ff16908060050154905083565b606060018054906101000a900473ffffffffffffffffffffffffffffffffffffffff1673ffffffffffffffffffffffffffffffffffffffff163373ffffffffffffffffffffffffffffffffffffffff1614610b80576040517f97c6e64400000000000000000000000000000000000000000000000000000000815260040160405180910390fd5b60058281548110610b9457610b93611c47565b5b9060005260206000209060060201600201805480602002602001604051908101604052809291908181526020018280548015610c1757602002820191906000526020600020906000905b82829054906101000a900461ffff1661ffff1681526020019060020190602082600101049283019260010382029150808411610bde5790505b50505050509050919050565b606060058281548110610c3957610c38611c47565b5b9060005260206000209060060201600301805480602002602001604051908101604052809291908181526020016000905b82821015610d16578382906000526020600020018054610c8990611bd0565b80601f0160208091040260200160405190810160405280929190818152602001828054610cb590611bd0565b8015610d025780601f10610cd757610100808354040283529160200191610d02565b820191906000526020600020905b815481529060010190602001808311610ce557829003601f168201915b505050505081526020019060010190610c6a565b505050509050919050565b600260003373ffffffffffffffffffffffffffffffffffffffff1673ffffffffffffffffffffffffffffffffffffffff16815260200190815260200160002060009054906101000a900460ff16610da4576040517ffe151ae800000000000000000000000000000000000000000000000000000000815260040160405180910390fd5b600460009054906101000a900460ff1660ff168210610def576040517f841c1fe600000000000000000000000000000000000000000000000000000000815260040160405180910390fd5b600060058381548110610e0557610e04611c47565b5b9060005260206000209060060201905060008160040160003373ffffffffffffffffffffffffffffffffffffffff1673ffffffffffffffffffffffffffffffffffffffff16815260200190815260200160002060009054906101000a900460ff1660ff161115610ea1576040517f8184676000000000000000000000000000000000000000000000000000000000815260040160405180910390fd5b80600501544210610ede576040517fb4e664f700000000000000000000000000000000000000000000000000000000815260040160405180910390fd5b806002018260ff1681548110610ef757610ef6611c47565b5b906000526020600020906010918282040191900660020281819054906101000a900461ffff1680929190610f2a90611ca5565b91906101000a81548161ffff021916908361ffff16021790555050600182610f529190611ccf565b8160040160003373ffffffffffffffffffffffffffffffffffffffff1673ffffffffffffffffffffffffffffffffffffffff16815260200190815260200160002060006101000a81548160ff021916908360ff160217905550505050565b60018054906101000a900473ffffffffffffffffffffffffffffffffffffffff1673ffffffffffffffffffffffffffffffffffffffff163373ffffffffffffffffffffffffffffffffffffffff1614611035576040517f97c6e64400000000000000000000000000000000000000000000000000000000815260040160405180910390fd5b4281106111f75760008251905060008160ff1667ffffffffffffffff811115611061576110606115ab565b5b60405190808252806020026020018201604052801561108f5781602001602082028036833780820191505090505b50905060056001816001815401808255809150500390600052602060002090505060006005600460009054906101000a900460ff1660ff16815481106110d8576110d7611c47565b5b906000526020600020906006020190508060030180600181540180825580915050600190039060005260206000200160006040518060400160405280600481526020017f6163616200000000000000000000000000000000000000000000000000000000815250909190915090816111509190611eb0565b50858160000190816111629190611eb0565b50828160010160006101000a81548160ff021916908360ff160217905550818160020190805190602001906111989291906111fc565b50848160030190805190602001906111b19291906112a6565b508381600501819055506004600081819054906101000a900460ff16809291906111da90611f82565b91906101000a81548160ff021916908360ff160217905550505050505b505050565b82805482825590600052602060002090600f016010900481019282156112955791602002820160005b8382111561126557835183826101000a81548161ffff021916908361ffff1602179055509260200192600201602081600101049283019260010302611225565b80156112935782816101000a81549061ffff0219169055600201602081600101049283019260010302611265565b505b5090506112a291906112ff565b5090565b8280548282559060005260206000209081019282156112ee579160200282015b828111156112ed5782518290816112dd9190611eb0565b50916020019190600101906112c6565b5b5090506112fb919061131c565b5090565b5b80821115611318576000816000905550600101611300565b5090565b5b8082111561133c57600081816113339190611340565b5060010161131d565b5090565b50805461134c90611bd0565b6000825580601f1061135e575061137d565b601f01602090049060005260206000209081019061137c91906112ff565b5b50565b600081519050919050565b600082825260208201905092915050565b60005b838110156113ba57808201518184015260208101905061139f565b60008484015250505050565b6000601f19601f8301169050919050565b60006113e282611380565b6113ec818561138b565b93506113fc81856020860161139c565b611405816113c6565b840191505092915050565b6000602082019050818103600083015261142a81846113d7565b905092915050565b6000604051905090565b600080fd5b600080fd5b600073ffffffffffffffffffffffffffffffffffffffff82169050919050565b600061147182611446565b9050919050565b61148181611466565b811461148c57600080fd5b50565b60008135905061149e81611478565b92915050565b6000602082840312156114ba576114b961143c565b5b60006114c88482850161148f565b91505092915050565b60008115159050919050565b6114e6816114d1565b82525050565b600060208201905061150160008301846114dd565b92915050565b600060ff82169050919050565b61151d81611507565b82525050565b60006020820190506115386000830184611514565b92915050565b6000819050919050565b6115518161153e565b811461155c57600080fd5b50565b60008135905061156e81611548565b92915050565b60006020828403121561158a5761158961143c565b5b60006115988482850161155f565b91505092915050565b600080fd5b600080fd5b7f4e487b7100000000000000000000000000000000000000000000000000000000600052604160045260246000fd5b6115e3826113c6565b810181811067ffffffffffffffff82111715611602576116016115ab565b5b80604052505050565b6000611615611432565b905061162182826115da565b919050565b600067ffffffffffffffff821115611641576116406115ab565b5b61164a826113c6565b9050602081019050919050565b82818337600083830152505050565b600061167961167484611626565b61160b565b905082815260208101848484011115611695576116946115a6565b5b6116a0848285611657565b509392505050565b600082601f8301126116bd576116bc6115a1565b5b81356116cd848260208601611666565b91505092915050565b6000602082840312156116ec576116eb61143c565b5b600082013567ffffffffffffffff81111561170a57611709611441565b5b611716848285016116a8565b91505092915050565b600061172a82611446565b9050919050565b61173a8161171f565b82525050565b60006020820190506117556000830184611731565b92915050565b6117648161153e565b82525050565b6000606082019050818103600083015261178481866113d7565b90506117936020830185611514565b6117a0604083018461175b565b949350505050565b600081519050919050565b600082825260208201905092915050565b6000819050602082019050919050565b600061ffff82169050919050565b6117eb816117d4565b82525050565b60006117fd83836117e2565b60208301905092915050565b6000602082019050919050565b6000611821826117a8565b61182b81856117b3565b9350611836836117c4565b8060005b8381101561186757815161184e88826117f1565b975061185983611809565b92505060018101905061183a565b5085935050505092915050565b6000602082019050818103600083015261188e8184611816565b905092915050565b600081519050919050565b600082825260208201905092915050565b6000819050602082019050919050565b600082825260208201905092915050565b60006118de82611380565b6118e881856118c2565b93506118f881856020860161139c565b611901816113c6565b840191505092915050565b600061191883836118d3565b905092915050565b6000602082019050919050565b600061193882611896565b61194281856118a1565b935083602082028501611954856118b2565b8060005b858110156119905784840389528151611971858261190c565b945061197c83611920565b925060208a01995050600181019050611958565b50829750879550505050505092915050565b600060208201905081810360008301526119bc818461192d565b905092915050565b6119cd81611507565b81146119d857600080fd5b50565b6000813590506119ea816119c4565b92915050565b60008060408385031215611a0757611a0661143c565b5b6000611a158582860161155f565b9250506020611a26858286016119db565b9150509250929050565b600067ffffffffffffffff821115611a4b57611a4a6115ab565b5b602082029050602081019050919050565b600080fd5b6000611a74611a6f84611a30565b61160b565b90508083825260208201905060208402830185811115611a9757611a96611a5c565b5b835b81811015611ade57803567ffffffffffffffff811115611abc57611abb6115a1565b5b808601611ac989826116a8565b85526020850194505050602081019050611a99565b5050509392505050565b600082601f830112611afd57611afc6115a1565b5b8135611b0d848260208601611a61565b91505092915050565b600080600060608486031215611b2f57611b2e61143c565b5b600084013567ffffffffffffffff811115611b4d57611b4c611441565b5b611b59868287016116a8565b935050602084013567ffffffffffffffff811115611b7a57611b79611441565b5b611b8686828701611ae8565b9250506040611b978682870161155f565b9150509250925092565b7f4e487b7100000000000000000000000000000000000000000000000000000000600052602260045260246000fd5b60006002820490506001821680611be857607f821691505b602082108103611bfb57611bfa611ba1565b5b50919050565b600081905092915050565b50565b6000611c1c600083611c01565b9150611c2782611c0c565b600082019050919050565b6000611c3d82611c0f565b9150819050919050565b7f4e487b7100000000000000000000000000000000000000000000000000000000600052603260045260246000fd5b7f4e487b7100000000000000000000000000000000000000000000000000000000600052601160045260246000fd5b6000611cb0826117d4565b915061ffff8203611cc457611cc3611c76565b5b600182019050919050565b6000611cda82611507565b9150611ce583611507565b9250828201905060ff811115611cfe57611cfd611c76565b5b92915050565b60008190508160005260206000209050919050565b60006020601f8301049050919050565b600082821b905092915050565b600060088302611d667fffffffffffffffffffffffffffffffffffffffffffffffffffffffffffffffff82611d29565b611d708683611d29565b95508019841693508086168417925050509392505050565b6000819050919050565b6000611dad611da8611da38461153e565b611d88565b61153e565b9050919050565b6000819050919050565b611dc783611d92565b611ddb611dd382611db4565b848454611d36565b825550505050565b600090565b611df0611de3565b611dfb818484611dbe565b505050565b5b81811015611e1f57611e14600082611de8565b600181019050611e01565b5050565b601f821115611e6457611e3581611d04565b611e3e84611d19565b81016020851015611e4d578190505b611e61611e5985611d19565b830182611e00565b50505b505050565b600082821c905092915050565b6000611e8760001984600802611e69565b1980831691505092915050565b6000611ea08383611e76565b9150826002028217905092915050565b611eb982611380565b67ffffffffffffffff811115611ed257611ed16115ab565b5b611edc8254611bd0565b611ee7828285611e23565b600060209050601f831160018114611f1a5760008415611f08578287015190505b611f128582611e94565b865550611f7a565b601f198416611f2886611d04565b60005b82811015611f5057848901518255600182019150602085019450602081019050611f2b565b86831015611f6d5784890151611f69601f891682611e76565b8355505b6001600288020188555050505b505050505050565b6000611f8d82611507565b915060ff8203611fa057611f9f611c76565b5b60018201905091905056fea2646970667358221220ba274114d0dcb146b509c5c1af9561ee804512be4e89b131dd3bee6f2673244164736f6c63430008110033",
  "linkReferences": {},
  "deployedLinkReferences": {}
}