{
  "_format": "hh-sol-artifact-1",
  "contractName": "CustomContract",
  "sourceName": "contracts/CustomContract.sol",
  "abi": [
    {
      "inputs": [
        {
          "internalType": "string",
          "name": "_name",
          "type": "string"
        },
        {
          "internalType": "address",
          "name": "_owner",
          "type": "address"
        },
        {
          "internalType": "bool",
          "name": "_verification",
          "type": "bool"
        }
      ],
      "stateMutability": "nonpayable",
      "type": "constructor"
    },
    {
      "inputs": [],
      "name": "CustomContract__NotOwner",
      "type": "error"
    },
    {
      "inputs": [],
      "name": "CustomContract__TransactionFailed",
      "type": "error"
    },
    {
      "anonymous": false,
      "inputs": [
        {
          "indexed": true,
          "internalType": "address",
          "name": "adr",
          "type": "address"
        }
      ],
      "name": "Join",
      "type": "event"
    },
    {
      "anonymous": false,
      "inputs": [
        {
          "indexed": true,
          "internalType": "address",
          "name": "adr",
          "type": "address"
        },
        {
          "indexed": false,
          "internalType": "string",
          "name": "message",
          "type": "string"
        }
      ],
      "name": "JoinRequest",
      "type": "event"
    },
    {
      "inputs": [
        {
          "internalType": "string",
          "name": "_message",
          "type": "string"
        }
      ],
      "name": "join",
      "outputs": [],
      "stateMutability": "nonpayable",
      "type": "function"
    },
    {
      "inputs": [
        {
          "internalType": "address",
          "name": "",
          "type": "address"
        }
      ],
      "name": "members",
      "outputs": [
        {
          "internalType": "bool",
          "name": "",
          "type": "bool"
        }
      ],
      "stateMutability": "view",
      "type": "function"
    },
    {
      "inputs": [],
      "name": "name",
      "outputs": [
        {
          "internalType": "string",
          "name": "",
          "type": "string"
        }
      ],
      "stateMutability": "view",
      "type": "function"
    },
    {
      "inputs": [],
      "name": "owner",
      "outputs": [
        {
          "internalType": "address payable",
          "name": "",
          "type": "address"
        }
      ],
      "stateMutability": "view",
      "type": "function"
    },
    {
      "inputs": [],
      "name": "verification",
      "outputs": [
        {
          "internalType": "bool",
          "name": "",
          "type": "bool"
        }
      ],
      "stateMutability": "view",
      "type": "function"
    },
    {
      "inputs": [
        {
          "internalType": "address",
          "name": "",
          "type": "address"
        }
      ],
      "name": "verificationWaitlist",
      "outputs": [
        {
          "internalType": "bool",
          "name": "",
          "type": "bool"
        }
      ],
      "stateMutability": "view",
      "type": "function"
    },
    {
      "inputs": [
        {
          "internalType": "address",
          "name": "_user",
          "type": "address"
        }
      ],
      "name": "verify",
      "outputs": [],
      "stateMutability": "nonpayable",
      "type": "function"
    },
    {
      "inputs": [
        {
          "internalType": "uint256",
          "name": "_amount",
          "type": "uint256"
        }
      ],
      "name": "withdrawFunds",
      "outputs": [],
      "stateMutability": "nonpayable",
      "type": "function"
    },
    {
      "stateMutability": "payable",
      "type": "receive"
    }
  ],
  "bytecode": "0x60806040523480156200001157600080fd5b50604051620013a4380380620013a48339818101604052810190620000379190620002e2565b81600460006101000a81548173ffffffffffffffffffffffffffffffffffffffff021916908373ffffffffffffffffffffffffffffffffffffffff1602179055508260009081620000899190620005a8565b5080600160006101000a81548160ff0219169083151502179055505050506200068f565b6000604051905090565b600080fd5b600080fd5b600080fd5b600080fd5b6000601f19601f8301169050919050565b7f4e487b7100000000000000000000000000000000000000000000000000000000600052604160045260246000fd5b6200011682620000cb565b810181811067ffffffffffffffff82111715620001385762000137620000dc565b5b80604052505050565b60006200014d620000ad565b90506200015b82826200010b565b919050565b600067ffffffffffffffff8211156200017e576200017d620000dc565b5b6200018982620000cb565b9050602081019050919050565b60005b83811015620001b657808201518184015260208101905062000199565b60008484015250505050565b6000620001d9620001d38462000160565b62000141565b905082815260208101848484011115620001f857620001f7620000c6565b5b6200020584828562000196565b509392505050565b600082601f830112620002255762000224620000c1565b5b815162000237848260208601620001c2565b91505092915050565b600073ffffffffffffffffffffffffffffffffffffffff82169050919050565b60006200026d8262000240565b9050919050565b6200027f8162000260565b81146200028b57600080fd5b50565b6000815190506200029f8162000274565b92915050565b60008115159050919050565b620002bc81620002a5565b8114620002c857600080fd5b50565b600081519050620002dc81620002b1565b92915050565b600080600060608486031215620002fe57620002fd620000b7565b5b600084015167ffffffffffffffff8111156200031f576200031e620000bc565b5b6200032d868287016200020d565b935050602062000340868287016200028e565b92505060406200035386828701620002cb565b9150509250925092565b600081519050919050565b7f4e487b7100000000000000000000000000000000000000000000000000000000600052602260045260246000fd5b60006002820490506001821680620003b057607f821691505b602082108103620003c657620003c562000368565b5b50919050565b60008190508160005260206000209050919050565b60006020601f8301049050919050565b600082821b905092915050565b600060088302620004307fffffffffffffffffffffffffffffffffffffffffffffffffffffffffffffffff82620003f1565b6200043c8683620003f1565b95508019841693508086168417925050509392505050565b6000819050919050565b6000819050919050565b600062000489620004836200047d8462000454565b6200045e565b62000454565b9050919050565b6000819050919050565b620004a58362000468565b620004bd620004b48262000490565b848454620003fe565b825550505050565b600090565b620004d4620004c5565b620004e18184846200049a565b505050565b5b818110156200050957620004fd600082620004ca565b600181019050620004e7565b5050565b601f82111562000558576200052281620003cc565b6200052d84620003e1565b810160208510156200053d578190505b620005556200054c85620003e1565b830182620004e6565b50505b505050565b600082821c905092915050565b60006200057d600019846008026200055d565b1980831691505092915050565b60006200059883836200056a565b9150826002028217905092915050565b620005b3826200035d565b67ffffffffffffffff811115620005cf57620005ce620000dc565b5b620005db825462000397565b620005e88282856200050d565b600060209050601f8311600181146200062057600084156200060b578287015190505b6200061785826200058a565b86555062000687565b601f1984166200063086620003cc565b60005b828110156200065a5784890151825560018201915060208501945060208101905062000633565b868310156200067a578489015162000676601f8916826200056a565b8355505b6001600288020188555050505b505050505050565b610d05806200069f6000396000f3fe60806040526004361061007f5760003560e01c80634ffe2a8b1161004e5780634ffe2a8b1461015957806363a9c3d7146101845780636a786b07146101ad5780638da5cb5b146101d657610086565b806306fdde031461008b57806308ae4b0c146100b6578063155dd5ee146100f3578063432a8dfe1461011c57610086565b3661008657005b600080fd5b34801561009757600080fd5b506100a0610201565b6040516100ad9190610915565b60405180910390f35b3480156100c257600080fd5b506100dd60048036038101906100d891906109a9565b61028f565b6040516100ea91906109f1565b60405180910390f35b3480156100ff57600080fd5b5061011a60048036038101906101159190610a42565b6102af565b005b34801561012857600080fd5b50610143600480360381019061013e91906109a9565b6103f6565b60405161015091906109f1565b60405180910390f35b34801561016557600080fd5b5061016e610416565b60405161017b91906109f1565b60405180910390f35b34801561019057600080fd5b506101ab60048036038101906101a691906109a9565b610429565b005b3480156101b957600080fd5b506101d460048036038101906101cf9190610ba4565b61060a565b005b3480156101e257600080fd5b506101eb61085f565b6040516101f89190610c0e565b60405180910390f35b6000805461020e90610c58565b80601f016020809104026020016040519081016040528092919081815260200182805461023a90610c58565b80156102875780601f1061025c57610100808354040283529160200191610287565b820191906000526020600020905b81548152906001019060200180831161026a57829003601f168201915b505050505081565b60026020528060005260406000206000915054906101000a900460ff1681565b600460009054906101000a900473ffffffffffffffffffffffffffffffffffffffff1673ffffffffffffffffffffffffffffffffffffffff163373ffffffffffffffffffffffffffffffffffffffff1614610336576040517f97c6e64400000000000000000000000000000000000000000000000000000000815260040160405180910390fd5b600081905081471015610347574790505b60003373ffffffffffffffffffffffffffffffffffffffff168260405161036d90610cba565b60006040518083038185875af1925050503d80600081146103aa576040519150601f19603f3d011682016040523d82523d6000602084013e6103af565b606091505b5050905060001515811515036103f1576040517ffe00d03800000000000000000000000000000000000000000000000000000000815260040160405180910390fd5b505050565b60036020528060005260406000206000915054906101000a900460ff1681565b600160009054906101000a900460ff1681565b600460009054906101000a900473ffffffffffffffffffffffffffffffffffffffff1673ffffffffffffffffffffffffffffffffffffffff163373ffffffffffffffffffffffffffffffffffffffff16146104b0576040517f97c6e64400000000000000000000000000000000000000000000000000000000815260040160405180910390fd5b600160009054906101000a900460ff161561060757600360008273ffffffffffffffffffffffffffffffffffffffff1673ffffffffffffffffffffffffffffffffffffffff16815260200190815260200160002060009054906101000a900460ff161561060657600360008273ffffffffffffffffffffffffffffffffffffffff1673ffffffffffffffffffffffffffffffffffffffff16815260200190815260200160002060006101000a81549060ff02191690556001600260008373ffffffffffffffffffffffffffffffffffffffff1673ffffffffffffffffffffffffffffffffffffffff16815260200190815260200160002060006101000a81548160ff0219169083151502179055508073ffffffffffffffffffffffffffffffffffffffff167f0764c80c4165f118547b301a0b4b91eac21bd2f2d9b61d0ac723ff0aab27bb7960405160405180910390a2610607565b5b50565b600160009054906101000a900460ff1661070f57600260003373ffffffffffffffffffffffffffffffffffffffff1673ffffffffffffffffffffffffffffffffffffffff16815260200190815260200160002060009054906101000a900460ff1661085c576001600260003373ffffffffffffffffffffffffffffffffffffffff1673ffffffffffffffffffffffffffffffffffffffff16815260200190815260200160002060006101000a81548160ff0219169083151502179055503373ffffffffffffffffffffffffffffffffffffffff167f0764c80c4165f118547b301a0b4b91eac21bd2f2d9b61d0ac723ff0aab27bb7960405160405180910390a261085b565b600360003373ffffffffffffffffffffffffffffffffffffffff1673ffffffffffffffffffffffffffffffffffffffff16815260200190815260200160002060009054906101000a900460ff16806107b05750600260003373ffffffffffffffffffffffffffffffffffffffff1673ffffffffffffffffffffffffffffffffffffffff16815260200190815260200160002060009054906101000a900460ff165b61085c576001600360003373ffffffffffffffffffffffffffffffffffffffff1673ffffffffffffffffffffffffffffffffffffffff16815260200190815260200160002060006101000a81548160ff0219169083151502179055503373ffffffffffffffffffffffffffffffffffffffff167feb3e688e6acbed85a6b3be493ee4a5f26c1cfa83ccbdc83aaf9f317f8e81e9d6826040516108529190610915565b60405180910390a25b5b50565b600460009054906101000a900473ffffffffffffffffffffffffffffffffffffffff1681565b600081519050919050565b600082825260208201905092915050565b60005b838110156108bf5780820151818401526020810190506108a4565b60008484015250505050565b6000601f19601f8301169050919050565b60006108e782610885565b6108f18185610890565b93506109018185602086016108a1565b61090a816108cb565b840191505092915050565b6000602082019050818103600083015261092f81846108dc565b905092915050565b6000604051905090565b600080fd5b600080fd5b600073ffffffffffffffffffffffffffffffffffffffff82169050919050565b60006109768261094b565b9050919050565b6109868161096b565b811461099157600080fd5b50565b6000813590506109a38161097d565b92915050565b6000602082840312156109bf576109be610941565b5b60006109cd84828501610994565b91505092915050565b60008115159050919050565b6109eb816109d6565b82525050565b6000602082019050610a0660008301846109e2565b92915050565b6000819050919050565b610a1f81610a0c565b8114610a2a57600080fd5b50565b600081359050610a3c81610a16565b92915050565b600060208284031215610a5857610a57610941565b5b6000610a6684828501610a2d565b91505092915050565b600080fd5b600080fd5b7f4e487b7100000000000000000000000000000000000000000000000000000000600052604160045260246000fd5b610ab1826108cb565b810181811067ffffffffffffffff82111715610ad057610acf610a79565b5b80604052505050565b6000610ae3610937565b9050610aef8282610aa8565b919050565b600067ffffffffffffffff821115610b0f57610b0e610a79565b5b610b18826108cb565b9050602081019050919050565b82818337600083830152505050565b6000610b47610b4284610af4565b610ad9565b905082815260208101848484011115610b6357610b62610a74565b5b610b6e848285610b25565b509392505050565b600082601f830112610b8b57610b8a610a6f565b5b8135610b9b848260208601610b34565b91505092915050565b600060208284031215610bba57610bb9610941565b5b600082013567ffffffffffffffff811115610bd857610bd7610946565b5b610be484828501610b76565b91505092915050565b6000610bf88261094b565b9050919050565b610c0881610bed565b82525050565b6000602082019050610c236000830184610bff565b92915050565b7f4e487b7100000000000000000000000000000000000000000000000000000000600052602260045260246000fd5b60006002820490506001821680610c7057607f821691505b602082108103610c8357610c82610c29565b5b50919050565b600081905092915050565b50565b6000610ca4600083610c89565b9150610caf82610c94565b600082019050919050565b6000610cc582610c97565b915081905091905056fea26469706673582212209d12d37336f87c4655ff426622c791a5ff5a73a9f78848e980589d9339043a4e64736f6c63430008110033",
  "linkReferences": {},
  "deployedLinkReferences": {}
}